:1000000002000375817075900075A0FFC2B0C2B187
:10001000C2B2D2B6D2B7D2B5754E00754800754F90
:100020000012085212085212085212061B12053909
:100030007401120593120842748312059390086E9E
:100040001205B512085A1200F81200D21206D6E5AF
:100050003060F6B443061200F8020049B42B0612D1
:10006000023A020049B43D2D12029140257401125A
:10007000059312084274851205939008791205B50C
:1000800012033C12085A754F017548001204BB0256
:1000900000A30200491208225003020049120189FC
:1000A0000200491200D21203FC0548E548B42806B4
:1000B0007548001204BB1204381206D6E530600CF5
:1000C000B44309754F001200F802004912085202A9
:1000D00000A320B40122740812059320B4FD740C0F
:1000E000120593120842E54F700412011F221203F9
:1000F000FC1204BB12043822754F00753800754499
:1001000000753A30753B30753C30753D30753E308A
:10011000753F3075403075413175423075433174EB
:10012000011205931208427484120593E53A1205F0
:10013000A4E53B1205A4743A1205A4E53C1205A4FB
:10014000E53D1205A4743A1205A4E53E1205A4E5A6
:100150003F1205A474C0120593E5401205A4E541C1
:100160001205A4743A1205A4E5421205A4E543124F
:1001700005A412024D74CC12059390088E1205B599
:10018000753984E53912059322E538B40A0122E570
:1001900039120593E5301205A4E538B40006853020
:1001A0003A0201EFB4010685303B0201EFB40206CA
:1001B00085303C0201EFB4030685303D0201EFB407
:1001C000040685303E0201EFB4050685303F02018A
:1001D000EFB406068530400201EFB40706853041D2
:1001E0000201EFB408068530420201EF8530430575
:1001F000381201F522E538B4010475398522B402BC
:100200000475398722B4030475398822B40404754F
:10021000398A22B4050475398B22B406047539C0B5
:1002200022B407047539C122B408047539C322B455
:1002300009047539C4227539C4220544E544B4075C
:100240000375440012024DE5391205932274C7125A
:100250000593E544B400069008AB02028DB4010694
:1002600090089302028DB4020690089702028DB4A2
:10027000030690089B02028DB4040690089F0202B8
:100280008DB405069008A302028D9008A71205B54B
:1002900022E538B40A02800302033AE53AC39430F7
:1002A000F545E53BC39430F546E545B4000302024D
:1002B000C7B401030202C7B4020AE546C39404505E
:1002C000030202C702033AE53CC39430C3940650CC
:1002D00002800302033AE53EC39430C39406500201
:1002E000800302033AE540C39430F545E541C394E9
:1002F00030F546E5454546600EE545B4030CE54658
:10030000C394025002800F02033AE545C39404509F
:1003100002800302033AE542C39430F545E543C346
:100320009430F546E54545466010E545600AB40160
:1003300009E546C394035002C322D322780E740009
:100340001204A4120842780F74001204A412084286
:1003500012063B74D012066C740012066CE53EC3A4
:100360009430C45470F545E53FC3943045451206BA
:100370006CE53CC39430C45470F545E53DC39430FE
:10038000454512066CE53AC39430C45430F545E552
:100390003BC39430454512066CE5441203D5120662
:1003A0006CE540C39430C45430F545E541C3943006
:1003B000454512066CE542C39430C45410F545E53A
:1003C00043C39430454512066C742512066C120620
:1003D0005612084A22B40003740722B401037401C0
:1003E00022B40203740222B40303740322B404038C
:1003F000740422B4050374052274062212063B74A9
:10040000D012066C740012066C12063B74D11206F0
:100410006C120694F531120694F532120694F533F7
:10042000120694F534120694F535120694F5361238
:1004300006A6F537120656227484120593E5335446
:100440003F1205C1743A1205A4E532547F1205C16A
:10045000743A1205A4E531547F1205C174C0120527
:1004600093E535543F1205C1743A1205A4E536549C
:100470001F1205C174201205A474201205A474C7AC
:10048000120593E53454071205D574201205A4749F
:10049000CC120593E54E1205C174DF1205A4744316
:1004A0001205A422F54512063B74D012066CE81220
:1004B000066CE54512066C12065622C2B512084AB1
:1004C000D2B5120862120503403612050E403112F1
:1004D0000503402C120519F549120519F54A1205B4
:1004E00019F54B120519F54C120519F54DE549257D
:1004F0004A254B254CB54D08E54B120531F54E22EA
:10050000D2B5227EFF30B504DEFBD322C3227EFFAC
:1005100020B504DEFBD322C3227F08E412050E407F
:100520000E120868A2B5331205034003DFEE22E481
:100530002275F00A84C445F0227430120582120834
:100540004274301205821208397430120582120882
:100550003974381205931208397438120593120849
:1005600039740812059312083974011205931208A0
:10057000427406120593120839740C12059312087E
:100580003922F590C2B0C2B1D2B200000000000022
:10059000C2B222F590C2B0C2B1D2B2120834C2B215
:1005A00012083922F590D2B0C2B1D2B2120834C2C8
:1005B000B212083922E49360071205A4A3E480F67E
:1005C00022F545C4540F24301205A4E545540F24E8
:1005D000301205A422B40106900893020617B40253
:1005E00006900897020617B4030690089B020617A8
:1005F000B4040690089F020617B405069008A302EB
:100600000617B406069008A7020617B40706900856
:10061000AB0206179008AF1205B522D2B77F09C208
:10062000B61206CBD2B61206CBDFF4C2B71206CB97
:10063000D2B61206CBD2B71206CB22D2B71206CB55
:10064000D2B61206CB1206CBC2B71206CB1206CB1D
:10065000C2B61206CB22C2B71206CBD2B61206CB56
:100660001206CBD2B71206CB1206CB227F08A2E726
:1006700092B71206CBD2B61206CBC2B61206CB2365
:10068000DFECD2B71206CBD2B61206CBA2B7C2B6F7
:100690001206CB221206B6C2B71206CBD2B612068B
:1006A000CBC2B6D2B7221206B6D2B71206CBD2B69A
:1006B0001206CBC2B6227F08E4D2B7D2B61206CB5E
:1006C000A2B733C2B61206CBDFF122000000000051
:1006D00000000000002275300075A0FF75A0FE002C
:1006E0000030A40C30A51430A61C30A72402071F2C
:1006F0007530371207ED40240207E67530341207D3
:10070000F540190207E67530311207FD400E020769
:10071000E675304312080540030207E602071F751D
:10072000A0FD000030A40C30A51430A61C30A72476
:100730000207627530381207ED40240207E6753073
:10074000351207F540190207E67530321207FD40F1
:100750000E0207E675303012080540030207E60274
:10076000076275A0FB000030A40C30A51430A61C55
:1007700030A7240207A57530391207ED402402077F
:10078000E67530361207F540190207E67530331268
:1007900007FD400E0207E675303D120805400302D2
:1007A00007E60207A575A0F7000030A40C30A512DB
:1007B00030A61830A71E0207DF7530001207ED02C1
:1007C00007DF7530001207F50207DF7530001207EA
:1007D000FD0207DF75302B12080540030207E6759E
:1007E000300075A0FF2212081175A0FF2212084ADE
:1007F00030A41A801A12084A30A512801212084A30
:1008000030A60A800A12084A30A7028002C322D307
:100810002275A0F0E5A054F0B4F0F612084A75A0D5
:10082000FF22E530C3943040097439C3953040024B
:10083000C322D32200000000227C047DFADDFEDC0E
:10084000FA227B02120839DBFB227A0A120839DA13
:10085000FB227919120839D9FB22786412084AD888
:10086000FB22780800D8FD22780C00D8FD22496EC2
:10087000697469616C697A650053617665640030FA
:10088000303A30303A30300030313A3031002D2DAE
:10089000DF430053554E004D4F4E00545545005711
:1008A0004544005448550046524900534154002DD8
:0308B0002D2D00EB
:00000001FF
